:100000000C945C000C946E000C946E000C946E00CA
:100010000C946E000C946E000C946E000C946E00A8
:100020000C946E000C946E000C946E000C946E0098
:100030000C946E000C946E000C946E000C946E0088
:100040000C94BD000C946E000C946E000C946E0029
:100050000C946E000C946E000C946E000C946E0068
:100060000C946E000C946E00000000080002010069
:100070000003040700000000000000000000000072
:10008000250028002B0000000000240027002A0083
:10009000040404040404040402020202020203032E
:1000A0000303030301020408102040800102040836
:1000B000102001020408102011241FBECFEFD8E049
:1000C000DEBFCDBF21E0A0E0B1E001C01D92AD31A7
:1000D000B207E1F70E9407010C94B9030C940000E9
:1000E00090E0FC01E859FF4F2491FC01EC55FF4FD3
:1000F0003491FC01E057FF4FE491EE2309F43CC03A
:10010000222339F1233091F038F42130A9F0223044
:1001100001F584B58F7D12C0273091F02830A1F011
:100120002430B9F4809180008F7D03C080918000DD
:100130008F77809380000DC084B58F7784BD09C010
:100140008091B0008F7703C08091B0008F7D809345
:10015000B000F0E0EE0FFF1FE458FF4FA591B491FF
:100160009FB7F894611104C08C913095382302C078
:10017000EC913E2B3C939FBF08951F920F920FB6B8
:100180000F9211242F933F938F939F93AF93BF931D
:100190008091190190911A01A0911B01B0911C014D
:1001A0003091180123E0230F2D3720F40196A11D73
:1001B000B11D05C026E8230F0296A11DB11D209395
:1001C00018018093190190931A01A0931B01B09319
:1001D0001C018091140190911501A0911601B0911C
:1001E00017010196A11DB11D809314019093150173
:1001F000A0931601B0931701BF91AF919F918F917A
:100200003F912F910F900FBE0F901F9018957894EB
:1002100084B5826084BD84B5816084BD85B582600B
:1002200085BD85B5816085BD80916E0081608093BC
:100230006E00109281008091810082608093810025
:100240008091810081608093810080918000816035
:10025000809380008091B10084608093B100809190
:10026000B00081608093B00080917A0084608093B8
:100270007A0080917A00826080937A0080917A007F
:10028000816080937A0080917A00806880937A0000
:100290001092C100A0E0B1E020E030E02F5F3F4FBE
:1002A0002D933D93F901EC55FF4F4491F901E0572F
:1002B000FF4F8491811104C02A30310579F714C0B1
:1002C00090E0880F991FFC01EA57FF4FC591D49128
:1002D000FC01E458FF4F859194918FB7F894E88121
:1002E000E42BE8838FBFE8CFE4EAF0E02491E0E973
:1002F000F0E084918823C1F090E0880F991FFC0101
:10030000EA57FF4FC591D491FC01E458FF4FA591E6
:10031000B4919FB7F8948881E22FE0958E2388836B
:100320008C91E823EC939FBFC0E0D0E010E41093E1
:100330007C0080917A00806480937A0080917A00BA
:1003400086FDFCCF609178008091790070E0782B79
:10035000072E000C880B990B0E9404032AE939E947
:100360004CEC52E40E945A026B017C0120E030E028
:10037000A9010E94900320E030E040E05FE387FDA8
:1003800005C0C701B6010E94EE0104C0C701B60155
:100390000E94ED010E94CC027B0180E0A82E81E04A
:1003A000B82EC12CD12CCE14DF0414F461E001C0AE
:1003B00060E0F50180810E947000FFEFCF1ADF0A34
:1003C00082E0A80EB11CEAE0CE16D10461F72097B6
:1003D00009F4ADCF0E940000AACF5058BB27AA272E
:1003E0000E9405020C9456030E94480338F00E94B4
:1003F0004F0320F039F49F3F19F426F40C94450381
:100400000EF4E095E7FB0C943F03E92F0E9467038D
:1004100058F3BA17620773078407950720F079F439
:10042000A6F50C9489030EF4E0950B2EBA2FA02D9F
:100430000B01B90190010C01CA01A0011124FF2791
:10044000591B99F0593F50F4503E68F11A16F0408C
:10045000A22F232F342F4427585FF3CF469537958B
:100460002795A795F0405395C9F77EF41F16BA0B50
:10047000620B730B840BBAF09150A1F0FF0FBB1FFE
:10048000661F771F881FC2F70EC0BA0F621F731F47
:10049000841F48F4879577956795B795F7959E3FA4
:1004A00008F0B0CF9395880F08F09927EE0F979535
:1004B000879508950E946E020C9456030E944F0384
:1004C00058F00E94480340F029F45F3F29F00C9453
:1004D0003F0351110C948A030C9445030E94670357
:1004E00068F39923B1F3552391F3951B550BBB2763
:1004F000AA2762177307840738F09F5F5F4F220FA8
:10050000331F441FAA1FA9F335D00E2E3AF0E0E89E
:1005100032D091505040E695001CCAF72BD0FE2FE8
:1005200029D0660F771F881FBB1F2617370748077C
:10053000AB07B0E809F0BB0B802DBF01FF27935834
:100540005F4F3AF09E3F510578F00C943F030C94B6
:100550008A035F3FE4F3983ED4F3869577956795D9
:10056000B795F7959F5FC9F7880F911D9695879569
:1005700097F90895E1E0660F771F881FBB1F621788
:1005800073078407BA0720F0621B730B840BBA0B46
:10059000EE1F88F7E09508950E94D3026894B11188
:1005A0000C948A0308950E946F0388F09F5798F077
:1005B000B92F9927B751B0F0E1F0660F771F881F68
:1005C000991F1AF0BA95C9F714C0B13091F00E9482
:1005D0008903B1E008950C948903672F782F882749
:1005E000B85F39F0B93FCCF3869577956795B395A9
:1005F000D9F73EF490958095709561957F4F8F4F18
:100600009F4F0895E89409C097FB3EF4909580951C
:10061000709561957F4F8F4F9F4F9923A9F0F92FC8
:1006200096E9BB279395F695879577956795B79546
:10063000F111F8CFFAF4BB0F11F460FF1BC06F5F2C
:100640007F4F8F4F9F4F16C0882311F096E911C03E
:10065000772321F09EE8872F762F05C0662371F05F
:1006600096E8862F70E060E02AF09A95660F771F73
:10067000881FDAF7880F9695879597F9089597F967
:100680009F6780E870E060E008959FEF80EC089538
:1006900000240A9416161706180609060895002461
:1006A0000A9412161306140605060895092E0394DB
:1006B000000C11F4882352F0BB0F40F4BF2B11F44F
:1006C00060FF04C06F5F7F4F8F4F9F4F089557FDAE
:1006D0009058440F551F59F05F3F71F04795880FB0
:1006E00097FB991F61F09F3F79F087950895121647
:1006F00013061406551FF2CF4695F1DF08C01616F3
:1007000017061806991FF1CF8695710561050894A3
:100710000895E894BB2766277727CB0197F90895BA
:100720000E94950308F48FEF0895990F0008550F64
:10073000AA0BE0E8FEEF16161706E807F907C0F067
:1007400012161306E407F50798F0621B730B840B6F
:10075000950B39F40A2661F0232B242B252B21F449
:1007600008950A2609F4A140A6958FEF811D811DE9
:060770000895F894FFCF8C
:00000001FF
