:100000000C946B000C9488000C9488000C9488006D
:100010000C9488000C9488000C9488000C94880040
:100020000C9488000C9488000C9488000C94880030
:100030000C9488000C9488000C9488000C94880020
:100040000C94B2010C9488000C9488000C948800E5
:100050000C9488000C9488000C9488000C94880000
:100060000C9488000C948800710378038103880342
:100070008F0396039D03A403AB03B20300000000AB
:10008000240027002A0000000000250028002B0083
:1000900000000000230026002900040404040404D6
:1000A0000404020202020202030303030303010227
:1000B00004081020408001020408102001020408F6
:1000C00010200000000800020100000304070000E7
:1000D00000000000000011241FBECFEFD8E0DEBFFB
:1000E000CDBF11E0A0E0B1E0E2E1FAE002C005908E
:1000F0000D92A630B107D9F721E0A6E0B1E001C02A
:100100001D92A331B207E1F70E94FC010C94070590
:100110000C940000833081F028F4813099F0823013
:10012000A1F008958730A9F08830B9F08430D1F477
:10013000809180008F7D03C0809180008F778093B5
:100140008000089584B58F7702C084B58F7D84BD0B
:1001500008958091B0008F7703C08091B0008F7DAB
:100160008093B0000895CF93DF93282F30E0F901FA
:10017000EE53FF4F8491F901E255FF4FD491F901FD
:10018000E656FF4FC491CC2391F081110E948A0062
:10019000EC2FF0E0EE0FFF1FE057FF4FA591B49159
:1001A000EC91ED2381E090E021F480E002C080E05A
:1001B00090E0DF91CF9108951F93CF93DF93282F85
:1001C00030E0F901EE53FF4F8491F901E255FF4F02
:1001D000D491F901E656FF4FC491CC23C1F0162FFC
:1001E00081110E948A00EC2FF0E0EE0FFF1FEA570A
:1001F000FF4FA591B4919FB7F894111104C08C9151
:10020000D095D82302C0EC91DE2BDC939FBFDF9109
:10021000CF911F910895CF93DF9390E0FC01E255B9
:10022000FF4F2491FC01E656FF4F8491882361F132
:1002300090E0880F991FFC01E458FF4FC591D491BD
:10024000FC01EA57FF4FA591B491611109C09FB716
:10025000F8948881209582238883EC912E230BC00B
:10026000623061F49FB7F8948881322F30958323F0
:100270008883EC912E2B2C939FBF06C08FB7F894E8
:10028000E8812E2B28838FBFDF91CF9108953FB750
:10029000F89480910B0190910C01A0910D01B09107
:1002A0000E0126B5A89B05C02F3F19F00196A11D90
:1002B000B11D3FBFBA2FA92F982F8827820F911DFC
:1002C000A11DB11DBC01CD0142E0660F771F881F43
:1002D000991F4A95D1F708958F929F92AF92BF923E
:1002E000EF92FF920F931F93CF93DF9361E00E94F1
:1002F000DC000091000110910101C0E0D0E0EE248B
:10030000E394F12CC017D10714F50E9447014B016B
:100310005C010E944701DC01CB0188199909AA09F7
:10032000BB09883E9340A105B10598F38BE00E947C
:10033000B300892B11F02196E5CFF0921201E092E3
:1003400011018BE00E94B300892BD9F3F4CFDF9128
:10035000CF911F910F91FF90EF90BF90AF909F9022
:100360008F9008951F920F920FB60F9211242F9322
:100370003F938F939F93AF93BF9380910701909189
:100380000801A0910901B0910A013091060123E012
:10039000230F2D3720F40196A11DB11D05C026E8BD
:1003A000230F0296A11DB11D209306018093070122
:1003B00090930801A0930901B0930A0180910B0169
:1003C00090910C01A0910D01B0910E010196A11D1B
:1003D000B11D80930B0190930C01A0930D01B0937C
:1003E0000E01BF91AF919F918F913F912F910F90EF
:1003F0000FBE0F901F901895789484B5826084BDCD
:1004000084B5816084BD85B5826085BD85B5816018
:1004100085BD80916E00816080936E001092810096
:100420008091810082608093810080918100816051
:100430008093810080918000816080938000809112
:10044000B10084608093B1008091B000816080939E
:10045000B00080917A00846080937A0080917A0065
:10046000826080937A0080917A00816080937A0024
:1004700080917A00806880937A001092C10061E0D8
:1004800081E00E940B0161E082E00E940B0161E0CB
:1004900083E00E940B0161E084E00E940B0161E0B7
:1004A00085E00E940B0161E086E00E940B0161E0A3
:1004B00087E00E940B0161E088E00E940B0161E08F
:1004C00089E00E940B0161E08AE00E940B0160E07C
:1004D0008BE00E940B0192E3292E312C29E0422E61
:1004E000512C612C712C38EE832E33E0932EC3E017
:1004F000D0E00AEF10E042E0E42EF12C54E6C52EE5
:10050000D12C80E0A82E80E0B82E80910F01909130
:100510001001009729F581E090E00E946C0182E0D3
:1005200090E00E946C0183E090E00E946C0184E006
:1005300090E00E946C0185E090E00E946C0186E0F2
:1005400090E00E946C0187E090E00E946C0188E0DE
:1005500090E00E946C0189E090E00E946C017DC0F7
:100560008130910509F051C081E090E00E946C015A
:1005700060E081E00E94DC0082E090E00E946C017B
:1005800060E082E00E94DC0083E090E00E946C0169
:1005900060E083E00E94DC0084E090E00E946C0157
:1005A00060E084E00E94DC0085E090E00E946C0145
:1005B00060E085E00E94DC0086E090E00E946C0133
:1005C00060E086E00E94DC0087E090E00E946C0121
:1005D00060E087E00E94DC0088E090E00E946C010F
:1005E00060E088E00E94DC0089E090E00E946C01FD
:1005F00060E089E00E94DC008AE090E00E946C01EB
:1006000060E08AE00E94DC00B4C08230910509F00D
:100610004DC061E085E00E94DC0086E090E00E9431
:100620006C0161E084E00E94DC0087E090E00E94C1
:100630006C0161E083E00E94DC0088E090E00E94B1
:100640006C0161E082E00E94DC0089E090E00E94A1
:100650006C0161E081E00E94DC008AE090E00E9491
:100660006C0160E081E00E94DC0060E082E00E94BA
:10067000DC0060E083E00E94DC0060E084E00E9437
:10068000DC0060E085E00E94DC0060E086E00E9423
:10069000DC0060E087E00E94DC0060E088E00E940F
:1006A000DC0060E089E00E94DC00AACF039709F03B
:1006B00060C00E944704A30192010E949E04DC01D5
:1006C000CB010196A11DB11D092E000CAA0BBB0B7D
:1006D0008A30910508F04DC0FC01EC5CFF4F0C9492
:1006E000010581E090E00E946C0160E081E006C0BD
:1006F00082E090E00E946C0160E082E00E94DC00F9
:1007000074C083E090E00E946C0160E083E0F6CF6B
:1007100084E090E00E946C0160E084E0EFCF85E02F
:1007200090E00E946C0160E085E0E8CF86E090E018
:100730000E946C0160E086E0E1CF87E090E00E94DB
:100740006C0160E087E0DACF88E090E00E946C0105
:1007500060E088E0D3CF89E090E00E946C0160E027
:1007600089E0CCCF8AE090E00E946C0160E08AE0F2
:10077000C5CF20911101309112012130310589F549
:1007800080910F0190911001009749F4309310016E
:1007900020930F01309201012092000122C081308C
:1007A000910549F4F0921001E0920F01D0920101FD
:1007B000C092000116C08230910549F4D093100117
:1007C000C0930F0110930101009300010AC0039729
:1007D00041F41092100110920F0190920101809249
:1007E00000011092120110921101A114B10409F438
:1007F0008CCE0E94000085CE8F929F92AF92BF92C6
:10080000CF92DF92EF92FF92CF93DF93EC0168815A
:1008100079818A819B81611571058105910521F49A
:1008200064E279ED8BE597E02DE133EF41E050E0B4
:100830000E949E0449015A019B01AC01A7EAB1E460
:100840000E94BD046B017C01ACEEB4EFA5019401E4
:100850000E94CB04DC01CB018C0D9D1DAE1DBF1D84
:10086000B7FF03C00197A109B04888839983AA8381
:10087000BB83BC01CD019F77DF91CF91FF90EF90BB
:10088000DF90CF90BF90AF909F908F9008958F9200
:100890009F92AF92BF92CF92DF92EF92FF926091C0
:1008A000020170910301809104019091050161158D
:1008B00071058105910521F464E279ED8BE597E0FE
:1008C0002DE133EF41E050E00E949E0449015A01BE
:1008D0009B01AC01A7EAB1E40E94BD046B017C015D
:1008E000ACEEB4EFA50194010E94CB04DC01CB0176
:1008F0008C0D9D1DAE1DBF1DB7FF03C00197A10943
:10090000B0488093020190930301A0930401B09337
:100910000501BC01CD019F77FF90EF90DF90CF9054
:10092000BF90AF909F908F90089560930201709355
:10093000030180930401909305010895052E97FB10
:100940001EF400940E94B50457FD07D00E94D00405
:1009500007FC03D04EF40C94B504509540953095A7
:1009600021953F4F4F4F5F4F08959095809570951B
:1009700061957F4F8F4F9F4F08950E94F204A59F6E
:10098000900DB49F900DA49F800D911D112408958A
:10099000B7FF0C94BD040E94BD04821B930B089505
:1009A000A1E21A2EAA1BBB1BFD010DC0AA1FBB1F73
:1009B000EE1FFF1FA217B307E407F50720F0A21BE5
:1009C000B30BE40BF50B661F771F881F991F1A9452
:1009D00069F760957095809590959B01AC01BD017C
:1009E000CF010895A29FB001B39FC001A39F700DD6
:1009F000811D1124911DB29F700D811D1124911D27
:100A00000895EE0FFF1F0590F491E02D0994F894DE
:020A1000FFCF16
:060A120064000100000079
:00000001FF
